{
  "transactions": [
    {
      "hash": "0x0a517b404dbac95d84a291d8434d36f0a088a8ac4e284336fc4c961ee54d10f3",
      "transactionType": "CALL",
      "contractName": null,
      "contractAddress": "0xe8b3c7e5bd537159698656251a5f187bebea995d",
      "function": "approve(address,uint256)",
      "arguments": [
        "0x6D46BE315b48f579387A5EA247E1E25D2FcCE7EE",
        "115792089237316195423570985008687907853269984665640564039457584007913129639935"
      ],
      "transaction": {
        "from": "0x1c9e05b29134233e19fbd0fe27400f5fffc3737e",
        "to": "0xe8b3c7e5bd537159698656251a5f187bebea995d",
        "gas": "0xfee1",
        "value": "0x0",
        "input": "0x095ea7b30000000000000000000000006d46be315b48f579387a5ea247e1e25d2fcce7eeffffffffffffffffffffffffffffffffffffffffffffffffffffffffffffffff",
        "nonce": "0x19",
        "chainId": "0x4268"
      },
      "additionalContracts": [],
      "isFixedGasLimit": false
    },
    {
      "hash": "0xa394e81c10baa98f40aff556d5c2988913ebd1ef1025dfbae5ee6990f6ef2481",
      "transactionType": "CALL",
      "contractName": null,
      "contractAddress": "0x6d46be315b48f579387a5ea247e1e25d2fcce7ee",
      "function": "wrap(uint256)",
      "arguments": [
        "1000000000000000000"
      ],
      "transaction": {
        "from": "0x1c9e05b29134233e19fbd0fe27400f5fffc3737e",
        "to": "0x6d46be315b48f579387a5ea247e1e25d2fcce7ee",
        "gas": "0x26d35",
        "value": "0x0",
        "input": "0xea598cb00000000000000000000000000000000000000000000000000de0b6b3a7640000",
        "nonce": "0x1a",
        "chainId": "0x4268"
      },
      "additionalContracts": [],
      "isFixedGasLimit": false
    },
    {
      "hash": "0x41e63abcb0375c78e7ee54ccb0fc9938694867536c89cee012647a5b8b054cf3",
      "transactionType": "CALL",
      "contractName": null,
      "contractAddress": "0x6d46be315b48f579387a5ea247e1e25d2fcce7ee",
      "function": "transfer(address,uint256)",
      "arguments": [
        "0xAfaCc2b23A15bCA901D7bB78331110c89075bF20",
        "1000000000000000000"
      ],
      "transaction": {
        "from": "0x1c9e05b29134233e19fbd0fe27400f5fffc3737e",
        "to": "0x6d46be315b48f579387a5ea247e1e25d2fcce7ee",
        "gas": "0x10eaa",
        "value": "0x0",
        "input": "0xa9059cbb000000000000000000000000afacc2b23a15bca901d7bb78331110c89075bf200000000000000000000000000000000000000000000000000de0b6b3a7640000",
        "nonce": "0x1b",
        "chainId": "0x4268"
      },
      "additionalContracts": [],
      "isFixedGasLimit": false
    }
  ],
  "receipts": [
    {
      "status": "0x1",
      "cumulativeGasUsed": "0x422122",
      "logs": [
        {
          "address": "0xe8b3c7e5bd537159698656251a5f187bebea995d",
          "topics": [
            "0x8c5be1e5ebec7d5bd14f71427d1e84f3dd0314c0f7b2291e5b200ac8c7c3b925",
            "0x0000000000000000000000001c9e05b29134233e19fbd0fe27400f5fffc3737e",
            "0x0000000000000000000000006d46be315b48f579387a5ea247e1e25d2fcce7ee"
          ],
          "data": "0xffffffffffffffffffffffffffffffffffffffffffffffffffffffffffffffff",
          "blockHash": "0x30e00a59f4513060ae69c876deca83dbb177df64d35c83db266b5a21589e192a",
          "blockNumber": "0x35fc07",
          "transactionHash": "0x0a517b404dbac95d84a291d8434d36f0a088a8ac4e284336fc4c961ee54d10f3",
          "transactionIndex": "0x4",
          "logIndex": "0xb",
          "removed": false
        }
      ],
      "logsBloom": "0x00000000000000000000000000000000001000000000000000000000000000000000000000000000000000000000000000000000000000000002010000200000000000000000000000000000000000000000200000000000000000000000000000000000000000000000000000000000000000000004000000000000000000000000400000040000000000000000000000000000000000000000000000000001020000000000000000000000000000000000000000000000000000000000000000000200000000000000000000000000000000000000000000000000000000000010000000000000000000000000000000000000000000000000000000000000",
      "type": "0x2",
      "transactionHash": "0x0a517b404dbac95d84a291d8434d36f0a088a8ac4e284336fc4c961ee54d10f3",
      "transactionIndex": "0x4",
      "blockHash": "0x30e00a59f4513060ae69c876deca83dbb177df64d35c83db266b5a21589e192a",
      "blockNumber": "0x35fc07",
      "gasUsed": "0xb888",
      "effectiveGasPrice": "0x2d5655",
      "from": "0x1c9e05b29134233e19fbd0fe27400f5fffc3737e",
      "to": "0xe8b3c7e5bd537159698656251a5f187bebea995d",
      "contractAddress": null
    },
    {
      "status": "0x1",
      "cumulativeGasUsed": "0x43c9e4",
      "logs": [
        {
          "address": "0xe8b3c7e5bd537159698656251a5f187bebea995d",
          "topics": [
            "0xddf252ad1be2c89b69c2b068fc378daa952ba7f163c4a11628f55a4df523b3ef",
            "0x0000000000000000000000001c9e05b29134233e19fbd0fe27400f5fffc3737e",
            "0x0000000000000000000000006d46be315b48f579387a5ea247e1e25d2fcce7ee"
          ],
          "data": "0x0000000000000000000000000000000000000000000000000de0b6b3a7640000",
          "blockHash": "0x30e00a59f4513060ae69c876deca83dbb177df64d35c83db266b5a21589e192a",
          "blockNumber": "0x35fc07",
          "transactionHash": "0xa394e81c10baa98f40aff556d5c2988913ebd1ef1025dfbae5ee6990f6ef2481",
          "transactionIndex": "0x5",
          "logIndex": "0xc",
          "removed": false
        },
        {
          "address": "0x6d46be315b48f579387a5ea247e1e25d2fcce7ee",
          "topics": [
            "0xddf252ad1be2c89b69c2b068fc378daa952ba7f163c4a11628f55a4df523b3ef",
            "0x0000000000000000000000000000000000000000000000000000000000000000",
            "0x0000000000000000000000001c9e05b29134233e19fbd0fe27400f5fffc3737e"
          ],
          "data": "0x0000000000000000000000000000000000000000000000000de0b6b3a7640000",
          "blockHash": "0x30e00a59f4513060ae69c876deca83dbb177df64d35c83db266b5a21589e192a",
          "blockNumber": "0x35fc07",
          "transactionHash": "0xa394e81c10baa98f40aff556d5c2988913ebd1ef1025dfbae5ee6990f6ef2481",
          "transactionIndex": "0x5",
          "logIndex": "0xd",
          "removed": false
        },
        {
          "address": "0x6d46be315b48f579387a5ea247e1e25d2fcce7ee",
          "topics": [
            "0x2273a99739c31a37346636a3013c2cedebee7cd5b4c560faded39d298c1dd45c",
            "0x0000000000000000000000001c9e05b29134233e19fbd0fe27400f5fffc3737e"
          ],
          "data": "0x0000000000000000000000000000000000000000000000000de0b6b3a7640000",
          "blockHash": "0x30e00a59f4513060ae69c876deca83dbb177df64d35c83db266b5a21589e192a",
          "blockNumber": "0x35fc07",
          "transactionHash": "0xa394e81c10baa98f40aff556d5c2988913ebd1ef1025dfbae5ee6990f6ef2481",
          "transactionIndex": "0x5",
          "logIndex": "0xe",
          "removed": false
        }
      ],
      "logsBloom": "0x00000000000000000000000000000000001000000000000000000000000000000000000000000000000000000000000000000000000000000002010000000000000000000000000000000008000000000000200000000000000000000000000000000000020000000000000000000800000000000004000000000010000002000000400000040000000000000000000000000000000000000400000000000001000000000000000000000000000000000000000000001000000000040000000000000202000000000000040000000000000000000000000000000000000020000000000000000000000000000000000000000000080000000000000000000000",
      "type": "0x2",
      "transactionHash": "0xa394e81c10baa98f40aff556d5c2988913ebd1ef1025dfbae5ee6990f6ef2481",
      "transactionIndex": "0x5",
      "blockHash": "0x30e00a59f4513060ae69c876deca83dbb177df64d35c83db266b5a21589e192a",
      "blockNumber": "0x35fc07",
      "gasUsed": "0x1a8c2",
      "effectiveGasPrice": "0x2d5655",
      "from": "0x1c9e05b29134233e19fbd0fe27400f5fffc3737e",
      "to": "0x6d46be315b48f579387a5ea247e1e25d2fcce7ee",
      "contractAddress": null
    },
    {
      "status": "0x1",
      "cumulativeGasUsed": "0x4482f6",
      "logs": [
        {
          "address": "0x6d46be315b48f579387a5ea247e1e25d2fcce7ee",
          "topics": [
            "0xddf252ad1be2c89b69c2b068fc378daa952ba7f163c4a11628f55a4df523b3ef",
            "0x0000000000000000000000001c9e05b29134233e19fbd0fe27400f5fffc3737e",
            "0x000000000000000000000000afacc2b23a15bca901d7bb78331110c89075bf20"
          ],
          "data": "0x0000000000000000000000000000000000000000000000000de0b6b3a7640000",
          "blockHash": "0x30e00a59f4513060ae69c876deca83dbb177df64d35c83db266b5a21589e192a",
          "blockNumber": "0x35fc07",
          "transactionHash": "0x41e63abcb0375c78e7ee54ccb0fc9938694867536c89cee012647a5b8b054cf3",
          "transactionIndex": "0x6",
          "logIndex": "0xf",
          "removed": false
        }
      ],
      "logsBloom": "0x00000000000000000000000000000000000000000000000000000000000000000000000000000000000000000000000000000000000000000002000020000000000000000000000000000008000000000000000000000000000000000000000000000000000000000000000000000000000000000000000000000010000002000000000000040000000000000000000000000000000000000000000000000000000000000000000000000000000000000000000000001000000000000000000000000202000000000000000000000000000000000000000000000000000000000000000000800000002000000000000000000000080000000000000000000000",
      "type": "0x2",
      "transactionHash": "0x41e63abcb0375c78e7ee54ccb0fc9938694867536c89cee012647a5b8b054cf3",
      "transactionIndex": "0x6",
      "blockHash": "0x30e00a59f4513060ae69c876deca83dbb177df64d35c83db266b5a21589e192a",
      "blockNumber": "0x35fc07",
      "gasUsed": "0xb912",
      "effectiveGasPrice": "0x2d5655",
      "from": "0x1c9e05b29134233e19fbd0fe27400f5fffc3737e",
      "to": "0x6d46be315b48f579387a5ea247e1e25d2fcce7ee",
      "contractAddress": null
    }
  ],
  "libraries": [],
  "pending": [],
  "returns": {},
  "timestamp": 1742656602,
  "chain": 17000,
  "commit": "30326a0"
}